:100000000C9446000C9465000C9465000C946500FB
:100010000C9465000C9465000C9465000C946500CC
:100020000C9465000C9465000C9465000C946500BC
:100030000C9465000C9444010C9465000C946500CC
:100040000C9465000C9465000C9465000C9465009C
:100050000C9465000C9465000C9465000C9465008C
:100060000C9465000C9465000C9465000C9465007C
:100070000C9465000C9465000C9465000C9465006C
:100080000C9465000C9465000C94650011241FBE4F
:10009000CFEFD0E4DEBFCDBF11E0A0E0B1E0EAEFEA
:1000A000F3E000E00BBF02C007900D92A431B1074E
:1000B000D9F721E0A4E1B1E001C01D92AD31B20752
:1000C000E1F70E94D4010C94FB010C940000CF9343
:1000D000DF9300D01F92CDB7DEB789837B836A831D
:1000E00089818A3031F48A819B81BC018DE00E9434
:1000F000670080EC90E0FC018081882F90E08072A6
:100100009927892BB1F386EC90E02981FC012083AB
:1001100080E090E00F900F900F90DF91CF910895C5
:10012000CF93DF93CDB7DEB780E290E0FC01808112
:10013000809580931A0180911B0190911C01813060
:10014000910569F08130910518F00297C9F14AC014
:1001500081E090E090931C0180931B0143C085E2F5
:1001600090E020911201FC01208380911A018130DE
:1001700039F482E090E090931C0180931B0132C01F
:1001800080911901833058F4809119018F5F809319
:10019000190180911201880F809312010AC081E039
:1001A000809312011092190185E290E022E0FC0197
:1001B000208381E090E090931C0180931B0112C08A
:1001C00080911A01813039F481E090E090931C0114
:1001D00080931B0106C082E090E090931C01809305
:1001E0001B0100000000DF91CF910895CF93DF93B2
:1001F000CDB7DEB781E890E02BE0FC01208388E8F2
:1002000090E02DE730E0FC01318320838FE690E021
:1002100022E0FC01208384E890E0FC01118210823E
:1002200080910E0190910F01A0911001B0911101E8
:100230008093150190931601A0931701B0931801B4
:100240008FE590E02FE530E0F90120812068FC0186
:1002500020830000DF91CF910895CF93DF93CDB736
:10026000DEB781E890E0FC0110820000DF91CF91C1
:100270000895CF93DF93CDB7DEB781E0809314016B
:100280000000DF91CF9108951F920F9200905F00C0
:100290000F92112400905B000F922F933F934F9386
:1002A0005F936F937F938F939F93AF93BF93EF93DE
:1002B000FF93CF93DF93CDB7DEB780911501909177
:1002C0001601A0911701B09118010197A109B10978
:1002D0008093150190931601A0931701B093180114
:1002E0008091150190911601A0911701B09118010C
:1002F000892B8A2B8B2B91F40E94390180910E015E
:1003000090910F01A0911001B091110180931501FE
:1003100090931601A0931701B09318010000DF918C
:10032000CF91FF91EF91BF91AF919F918F917F916D
:100330006F915F914F913F912F910F9000925B00D1
:100340000F9000925F000F901F901895CF93DF934E
:1003500000D000D0CDB7DEB769837A838B839C83CE
:1003600089819A81AB81BC8180930E0190930F01AA
:10037000A0931001B093110180910E0190910F0193
:10038000A0911001B0911101809315019093160175
:10039000A0931701B093180100000F900F900F90D9
:1003A0000F90DF91CF910895CF93DF93CDB7DEB754
:1003B00081E290E0FC01108282E290E02FEFFC01EC
:1003C000208384E290E02FEFFC01208385E290E01F
:1003D000FC0110826CE271E080E090E00E94A601D6
:1003E0000E94F60080911401813011F40E94900067
:0A03F00010921401F7CFF894FFCF2C
:1003FA000000000200000000670000000000010089
:04040A0000000100ED
:00000001FF
